{"abi":[{"type":"function","name":"executeStrategy","inputs":[{"name":"strategyId","type":"bytes32","internalType":"bytes32"},{"name":"payload","type":"bytes","internalType":"bytes"}],"outputs":[],"stateMutability":"nonpayable"},{"type":"event","name":"StrategyExecuted","inputs":[{"name":"strategyId","type":"bytes32","indexed":true,"internalType":"bytes32"},{"name":"caller","type":"address","indexed":true,"internalType":"address"},{"name":"payload","type":"bytes","indexed":false,"internalType":"bytes"}],"anonymous":false}],"bytecode":{"object":"0x6080604052348015600e575f5ffd5b506103068061001c5f395ff3fe608060405234801561000f575f5ffd5b5060043610610029575f3560e01c8063548913ad1461002d575b5f5ffd5b6100476004803603810190610042919061017f565b610049565b005b5f5f1b830361008d576040517f08c379a000000000000000000000000000000000000000000000000000000000815260040161008490610236565b60405180910390fd5b3373ffffffffffffffffffffffffffffffffffffffff16837fed0a76a0692a6e84668bfca30318877a60c2afe3db28cff2225a83150fd4ca5984846040516100d69291906102ae565b60405180910390a3505050565b5f5ffd5b5f5ffd5b5f819050919050565b6100fd816100eb565b8114610107575f5ffd5b50565b5f81359050610118816100f4565b92915050565b5f5ffd5b5f5ffd5b5f5ffd5b5f5f83601f84011261013f5761013e61011e565b5b8235905067ffffffffffffffff81111561015c5761015b610122565b5b60208301915083600182028301111561017857610177610126565b5b9250929050565b5f5f5f60408486031215610196576101956100e3565b5b5f6101a38682870161010a565b935050602084013567ffffffffffffffff8111156101c4576101c36100e7565b5b6101d08682870161012a565b92509250509250925092565b5f82825260208201905092915050565b7f696e76616c6964207374726174656779000000000000000000000000000000005f82015250565b5f6102206010836101dc565b915061022b826101ec565b602082019050919050565b5f6020820190508181035f83015261024d81610214565b9050919050565b5f82825260208201905092915050565b828183375f83830152505050565b5f601f19601f8301169050919050565b5f61028d8385610254565b935061029a838584610264565b6102a383610272565b840190509392505050565b5f6020820190508181035f8301526102c7818486610282565b9050939250505056fea264697066735822122067b689e2ee6815f062667c57427c0a64b9c5b86d1991c33a750cce73a009b95864736f6c634300081e0033","linkReferences":{}},"methodIdentifiers":{"executeStrategy(bytes32,bytes)":"548913ad"},"id":0}