{"abi":[{"type":"constructor","inputs":[],"stateMutability":"nonpayable"},{"type":"function","name":"admins","inputs":[{"name":"","type":"address","internalType":"address"}],"outputs":[{"name":"","type":"bool","internalType":"bool"}],"stateMutability":"view"},{"type":"function","name":"getPolicyForAgent","inputs":[{"name":"agent","type":"address","internalType":"address"}],"outputs":[{"name":"policyHash","type":"bytes32","internalType":"bytes32"},{"name":"policyVersion","type":"uint64","internalType":"uint64"},{"name":"circuitVersion","type":"uint64","internalType":"uint64"},{"name":"active","type":"bool","internalType":"bool"}],"stateMutability":"view"},{"type":"function","name":"owner","inputs":[],"outputs":[{"name":"","type":"address","internalType":"address"}],"stateMutability":"view"},{"type":"function","name":"policyHashOf","inputs":[{"name":"agent","type":"address","internalType":"address"}],"outputs":[{"name":"","type":"bytes32","internalType":"bytes32"}],"stateMutability":"view"},{"type":"function","name":"registerOrUpdatePolicy","inputs":[{"name":"agent","type":"address","internalType":"address"},{"name":"policyHash","type":"bytes32","internalType":"bytes32"},{"name":"policyVersion","type":"uint64","internalType":"uint64"},{"name":"circuitVersion","type":"uint64","internalType":"uint64"},{"name":"active","type":"bool","internalType":"bool"}],"outputs":[],"stateMutability":"nonpayable"},{"type":"function","name":"setAdmin","inputs":[{"name":"admin","type":"address","internalType":"address"},{"name":"enabled","type":"bool","internalType":"bool"}],"outputs":[],"stateMutability":"nonpayable"},{"type":"function","name":"transferOwnership","inputs":[{"name":"newOwner","type":"address","internalType":"address"}],"outputs":[],"stateMutability":"nonpayable"},{"type":"event","name":"AdminUpdated","inputs":[{"name":"admin","type":"address","indexed":true,"internalType":"address"},{"name":"enabled","type":"bool","indexed":false,"internalType":"bool"}],"anonymous":false},{"type":"event","name":"OwnershipTransferred","inputs":[{"name":"previousOwner","type":"address","indexed":true,"internalType":"address"},{"name":"newOwner","type":"address","indexed":true,"internalType":"address"}],"anonymous":false},{"type":"event","name":"PolicyConfigured","inputs":[{"name":"agent","type":"address","indexed":true,"internalType":"address"},{"name":"policyHash","type":"bytes32","indexed":true,"internalType":"bytes32"},{"name":"policyVersion","type":"uint64","indexed":false,"internalType":"uint64"},{"name":"circuitVersion","type":"uint64","indexed":false,"internalType":"uint64"},{"name":"active","type":"bool","indexed":false,"internalType":"bool"}],"anonymous":false},{"type":"error","name":"InvalidAgent","inputs":[]},{"type":"error","name":"InvalidPolicyHash","inputs":[]},{"type":"error","name":"InvalidVersion","inputs":[]},{"type":"error","name":"NotAdmin","inputs":[]},{"type":"error","name":"NotOwner","inputs":[]}],"bytecode":{"object":"0x6080604052348015600e575f5ffd5b50335f5f6101000a81548173ffffffffffffffffffffffffffffffffffffffff021916908373ffffffffffffffffffffffffffffffffffffffff1602179055503373ffffffffffffffffffffffffffffffffffffffff165f73ffffffffffffffffffffffffffffffffffffffff167f8be0079c531659141344cd1fd0a4f28419497f9722a3daafe3b4186f6b6457e060405160405180910390a3610c7d806100b55f395ff3fe608060405234801561000f575f5ffd5b506004361061007b575f3560e01c80638da5cb5b116100595780638da5cb5b146100fe578063dec2d1af1461011c578063ee555b5414610138578063f2fde38b146101685761007b565b8063429b62e51461007f5780634b0bddd2146100af57806388215e63146100cb575b5f5ffd5b610099600480360381019061009491906109c3565b610184565b6040516100a69190610a08565b60405180910390f35b6100c960048036038101906100c49190610a4b565b6101a1565b005b6100e560048036038101906100e091906109c3565b610331565b6040516100f59493929190610ac3565b60405180910390f35b61010661042a565b6040516101139190610b15565b60405180910390f35b61013660048036038101906101319190610b82565b61044e565b005b610152600480360381019061014d91906109c3565b610772565b60405161015f9190610bf9565b60405180910390f35b610182600480360381019061017d91906109c3565b6107ba565b005b6001602052805f5260405f205f915054906101000a900460ff1681565b5f5f9054906101000a900473ffffffffffffffffffffffffffffffffffffffff1673ffffffffffffffffffffffffffffffffffffffff163373ffffffffffffffffffffffffffffffffffffffff1614610226576040517f30cd747100000000000000000000000000000000000000000000000000000000815260040160405180910390fd5b5f73ffffffffffffffffffffffffffffffffffffffff168273ffffffffffffffffffffffffffffffffffffffff160361028b576040517fbebdc75700000000000000000000000000000000000000000000000000000000815260040160405180910390fd5b8060015f8473ffffffffffffffffffffffffffffffffffffffff1673ffffffffffffffffffffffffffffffffffffffff1681526020019081526020015f205f6101000a81548160ff0219169083151502179055508173ffffffffffffffffffffffffffffffffffffffff167f235bc17e7930760029e9f4d860a2a8089976de5b381cf8380fc11c1d88a11133826040516103259190610a08565b60405180910390a25050565b5f5f5f5f5f60025f8773ffffffffffffffffffffffffffffffffffffffff1673ffffffffffffffffffffffffffffffffffffffff1681526020019081526020015f206040518060800160405290815f8201548152602001600182015f9054906101000a900467ffffffffffffffff1667ffffffffffffffff1667ffffffffffffffff1681526020016001820160089054906101000a900467ffffffffffffffff1667ffffffffffffffff1667ffffffffffffffff1681526020016001820160109054906101000a900460ff1615151515815250509050805f01518160200151826040015183606001519450945094509450509193509193565b5f5f9054906101000a900473ffffffffffffffffffffffffffffffffffffffff1681565b5f5f9054906101000a900473ffffffffffffffffffffffffffffffffffffffff1673ffffffffffffffffffffffffffffffffffffffff163373ffffffffffffffffffffffffffffffffffffffff1614806104ee575060015f3373ffffffffffffffffffffffffffffffffffffffff1673ffffffffffffffffffffffffffffffffffffffff1681526020019081526020015f205f9054906101000a900460ff165b610524576040517f7bfa4b9f00000000000000000000000000000000000000000000000000000000815260040160405180910390fd5b5f73ffffffffffffffffffffffffffffffffffffffff168573ffffffffffffffffffffffffffffffffffffffff1603610589576040517fbebdc75700000000000000000000000000000000000000000000000000000000815260040160405180910390fd5b5f5f1b84036105c4576040517f0e0ae03d00000000000000000000000000000000000000000000000000000000815260040160405180910390fd5b5f8367ffffffffffffffff1614806105e557505f8267ffffffffffffffff16145b1561061c576040517fa9146eeb00000000000000000000000000000000000000000000000000000000815260040160405180910390fd5b60405180608001604052808581526020018467ffffffffffffffff1681526020018367ffffffffffffffff16815260200182151581525060025f8773ffffffffffffffffffffffffffffffffffffffff1673ffffffffffffffffffffffffffffffffffffffff1681526020019081526020015f205f820151815f01556020820151816001015f6101000a81548167ffffffffffffffff021916908367ffffffffffffffff16021790555060408201518160010160086101000a81548167ffffffffffffffff021916908367ffffffffffffffff16021790555060608201518160010160106101000a81548160ff021916908315150217905550905050838573ffffffffffffffffffffffffffffffffffffffff167f59c3f1169c551659f472e948775ce8ba3f1826343f90edeae782c5fae887c69585858560405161076393929190610c12565b60405180910390a35050505050565b5f60025f8373ffffffffffffffffffffffffffffffffffffffff1673ffffffffffffffffffffffffffffffffffffffff1681526020019081526020015f205f01549050919050565b5f5f9054906101000a900473ffffffffffffffffffffffffffffffffffffffff1673ffffffffffffffffffffffffffffffffffffffff163373ffffffffffffffffffffffffffffffffffffffff161461083f576040517f30cd747100000000000000000000000000000000000000000000000000000000815260040160405180910390fd5b5f73ffffffffffffffffffffffffffffffffffffffff168173ffffffffffffffffffffffffffffffffffffffff16036108a4576040517fbebdc75700000000000000000000000000000000000000000000000000000000815260040160405180910390fd5b5f5f5f9054906101000a900473ffffffffffffffffffffffffffffffffffffffff169050815f5f6101000a81548173ffffffffffffffffffffffffffffffffffffffff021916908373ffffffffffffffffffffffffffffffffffffffff1602179055508173ffffffffffffffffffffffffffffffffffffffff168173ffffffffffffffffffffffffffffffffffffffff167f8be0079c531659141344cd1fd0a4f28419497f9722a3daafe3b4186f6b6457e060405160405180910390a35050565b5f5ffd5b5f73ffffffffffffffffffffffffffffffffffffffff82169050919050565b5f61099282610969565b9050919050565b6109a281610988565b81146109ac575f5ffd5b50565b5f813590506109bd81610999565b92915050565b5f602082840312156109d8576109d7610965565b5b5f6109e5848285016109af565b91505092915050565b5f8115159050919050565b610a02816109ee565b82525050565b5f602082019050610a1b5f8301846109f9565b92915050565b610a2a816109ee565b8114610a34575f5ffd5b50565b5f81359050610a4581610a21565b92915050565b5f5f60408385031215610a6157610a60610965565b5b5f610a6e858286016109af565b9250506020610a7f85828601610a37565b9150509250929050565b5f819050919050565b610a9b81610a89565b82525050565b5f67ffffffffffffffff82169050919050565b610abd81610aa1565b82525050565b5f608082019050610ad65f830187610a92565b610ae36020830186610ab4565b610af06040830185610ab4565b610afd60608301846109f9565b95945050505050565b610b0f81610988565b82525050565b5f602082019050610b285f830184610b06565b92915050565b610b3781610a89565b8114610b41575f5ffd5b50565b5f81359050610b5281610b2e565b92915050565b610b6181610aa1565b8114610b6b575f5ffd5b50565b5f81359050610b7c81610b58565b92915050565b5f5f5f5f5f60a08688031215610b9b57610b9a610965565b5b5f610ba8888289016109af565b9550506020610bb988828901610b44565b9450506040610bca88828901610b6e565b9350506060610bdb88828901610b6e565b9250506080610bec88828901610a37565b9150509295509295909350565b5f602082019050610c0c5f830184610a92565b92915050565b5f606082019050610c255f830186610ab4565b610c326020830185610ab4565b610c3f60408301846109f9565b94935050505056fea2646970667358221220850b616fe7b9b0d610ef6cba95306e493fd9179431b291406375643125b99c9264736f6c634300081e0033","linkReferences":{}},"methodIdentifiers":{"admins(address)":"429b62e5","getPolicyForAgent(address)":"88215e63","owner()":"8da5cb5b","policyHashOf(address)":"ee555b54","registerOrUpdatePolicy(address,bytes32,uint64,uint64,bool)":"dec2d1af","setAdmin(address,bool)":"4b0bddd2","transferOwnership(address)":"f2fde38b"},"id":4}