{"abi":[{"type":"function","name":"policies","inputs":[{"name":"","type":"bytes32","internalType":"bytes32"}],"outputs":[{"name":"policyHash","type":"bytes32","internalType":"bytes32"},{"name":"active","type":"bool","internalType":"bool"}],"stateMutability":"view"},{"type":"function","name":"registerPolicy","inputs":[{"name":"policyId","type":"bytes32","internalType":"bytes32"},{"name":"policyHash","type":"bytes32","internalType":"bytes32"}],"outputs":[],"stateMutability":"nonpayable"},{"type":"function","name":"setPolicyActive","inputs":[{"name":"policyId","type":"bytes32","internalType":"bytes32"},{"name":"active","type":"bool","internalType":"bool"}],"outputs":[],"stateMutability":"nonpayable"},{"type":"event","name":"PolicyActivationUpdated","inputs":[{"name":"policyId","type":"bytes32","indexed":true,"internalType":"bytes32"},{"name":"active","type":"bool","indexed":false,"internalType":"bool"}],"anonymous":false},{"type":"event","name":"PolicyRegistered","inputs":[{"name":"policyId","type":"bytes32","indexed":true,"internalType":"bytes32"},{"name":"policyHash","type":"bytes32","indexed":true,"internalType":"bytes32"}],"anonymous":false}],"bytecode":{"object":"0x6080604052348015600e575f5ffd5b5061064c8061001c5f395ff3fe608060405234801561000f575f5ffd5b506004361061003f575f3560e01c8063579196cf14610043578063ddbfd8ef1461005f578063eb0d666f14610090575b5f5ffd5b61005d60048036038101906100589190610361565b6100ac565b005b6100796004803603810190610074919061039f565b610168565b6040516100879291906103e8565b60405180910390f35b6100aa60048036038101906100a5919061040f565b610193565b005b5f5f1b5f5f8481526020019081526020015f205f015403610102576040517f08c379a00000000000000000000000000000000000000000000000000000000081526004016100f9906104a7565b60405180910390fd5b805f5f8481526020019081526020015f206001015f6101000a81548160ff021916908315150217905550817f045b514336ea9e44e9c745e870fe1c9e9da82eb38d07494520ad847be85a10f78260405161015c91906104c5565b60405180910390a25050565b5f602052805f5260405f205f91509050805f015490806001015f9054906101000a900460ff16905082565b5f5f1b82036101d7576040517f08c379a00000000000000000000000000000000000000000000000000000000081526004016101ce90610528565b60405180910390fd5b5f5f1b810361021b576040517f08c379a000000000000000000000000000000000000000000000000000000000815260040161021290610590565b60405180910390fd5b5f5f1b5f5f8481526020019081526020015f205f015414610271576040517f08c379a0000000000000000000000000000000000000000000000000000000008152600401610268906105f8565b60405180910390fd5b6040518060400160405280828152602001600115158152505f5f8481526020019081526020015f205f820151815f01556020820151816001015f6101000a81548160ff02191690831515021790555090505080827fb48ee4b0536bef99672a1e170b61fb7587752d04882be1fa15f48f73ae34c3b360405160405180910390a35050565b5f5ffd5b5f819050919050565b61030b816102f9565b8114610315575f5ffd5b50565b5f8135905061032681610302565b92915050565b5f8115159050919050565b6103408161032c565b811461034a575f5ffd5b50565b5f8135905061035b81610337565b92915050565b5f5f60408385031215610377576103766102f5565b5b5f61038485828601610318565b92505060206103958582860161034d565b9150509250929050565b5f602082840312156103b4576103b36102f5565b5b5f6103c184828501610318565b91505092915050565b6103d3816102f9565b82525050565b6103e28161032c565b82525050565b5f6040820190506103fb5f8301856103ca565b61040860208301846103d9565b9392505050565b5f5f60408385031215610425576104246102f5565b5b5f61043285828601610318565b925050602061044385828601610318565b9150509250929050565b5f82825260208201905092915050565b7f756e6b6e6f776e20706f6c6963790000000000000000000000000000000000005f82015250565b5f610491600e8361044d565b915061049c8261045d565b602082019050919050565b5f6020820190508181035f8301526104be81610485565b9050919050565b5f6020820190506104d85f8301846103d9565b92915050565b7f696e76616c696420706f6c6963792069640000000000000000000000000000005f82015250565b5f61051260118361044d565b915061051d826104de565b602082019050919050565b5f6020820190508181035f83015261053f81610506565b9050919050565b7f696e76616c696420706f6c6963792068617368000000000000000000000000005f82015250565b5f61057a60138361044d565b915061058582610546565b602082019050919050565b5f6020820190508181035f8301526105a78161056e565b9050919050565b7f706f6c69637920657869737473000000000000000000000000000000000000005f82015250565b5f6105e2600d8361044d565b91506105ed826105ae565b602082019050919050565b5f6020820190508181035f83015261060f816105d6565b905091905056fea2646970667358221220f11d053c7edb7d03303984ae0df2e549af08707f26e66921faa0fe892651c01364736f6c634300081e0033","linkReferences":{}},"methodIdentifiers":{"policies(bytes32)":"ddbfd8ef","registerPolicy(bytes32,bytes32)":"eb0d666f","setPolicyActive(bytes32,bool)":"579196cf"},"id":3}