{"abi":[{"type":"function","name":"identityCommitmentExists","inputs":[{"name":"","type":"bytes32","internalType":"bytes32"}],"outputs":[{"name":"","type":"bool","internalType":"bool"}],"stateMutability":"view"},{"type":"function","name":"registerIdentityCommitment","inputs":[{"name":"identityCommitment","type":"bytes32","internalType":"bytes32"}],"outputs":[],"stateMutability":"nonpayable"},{"type":"event","name":"IdentityCommitmentRegistered","inputs":[{"name":"identityCommitment","type":"bytes32","indexed":true,"internalType":"bytes32"},{"name":"registrar","type":"address","indexed":true,"internalType":"address"}],"anonymous":false}],"bytecode":{"object":"0x6080604052348015600e575f5ffd5b5061035b8061001c5f395ff3fe608060405234801561000f575f5ffd5b5060043610610034575f3560e01c806347aeeb7014610038578063cca36aa614610068575b5f5ffd5b610052600480360381019061004d91906101e7565b610084565b60405161005f919061022c565b60405180910390f35b610082600480360381019061007d91906101e7565b6100a0565b005b5f602052805f5260405f205f915054906101000a900460ff1681565b5f5f1b81036100e4576040517f08c379a00000000000000000000000000000000000000000000000000000000081526004016100db9061029f565b60405180910390fd5b5f5f8281526020019081526020015f205f9054906101000a900460ff1615610141576040517f08c379a000000000000000000000000000000000000000000000000000000000815260040161013890610307565b60405180910390fd5b60015f5f8381526020019081526020015f205f6101000a81548160ff0219169083151502179055503373ffffffffffffffffffffffffffffffffffffffff16817f74ee535068cfb2325660ff83f093e2f7ee68f245f3e70f834c8d306a07b4e60a60405160405180910390a350565b5f5ffd5b5f819050919050565b6101c6816101b4565b81146101d0575f5ffd5b50565b5f813590506101e1816101bd565b92915050565b5f602082840312156101fc576101fb6101b0565b5b5f610209848285016101d3565b91505092915050565b5f8115159050919050565b61022681610212565b82525050565b5f60208201905061023f5f83018461021d565b92915050565b5f82825260208201905092915050565b7f696e76616c696420636f6d6d69746d656e7400000000000000000000000000005f82015250565b5f610289601283610245565b915061029482610255565b602082019050919050565b5f6020820190508181035f8301526102b68161027d565b9050919050565b7f616c7265616479207265676973746572656400000000000000000000000000005f82015250565b5f6102f1601283610245565b91506102fc826102bd565b602082019050919050565b5f6020820190508181035f83015261031e816102e5565b905091905056fea2646970667358221220c98853135ed3d6b59a2d03d72f916cb3313114d69797f2c625029f7548e7dc0364736f6c634300081e0033","linkReferences":{}},"methodIdentifiers":{"identityCommitmentExists(bytes32)":"47aeeb70","registerIdentityCommitment(bytes32)":"cca36aa6"},"id":2}