{"abi":[{"type":"constructor","inputs":[{"name":"verifierAddress","type":"address","internalType":"address"}],"stateMutability":"nonpayable"},{"type":"function","name":"validateProof","inputs":[{"name":"policyId","type":"bytes32","internalType":"bytes32"},{"name":"identityCommitment","type":"bytes32","internalType":"bytes32"},{"name":"pA","type":"uint256[2]","internalType":"uint256[2]"},{"name":"pB","type":"uint256[2][2]","internalType":"uint256[2][2]"},{"name":"pC","type":"uint256[2]","internalType":"uint256[2]"},{"name":"pubSignals","type":"uint256[]","internalType":"uint256[]"}],"outputs":[{"name":"","type":"bool","internalType":"bool"}],"stateMutability":"nonpayable"},{"type":"function","name":"verifier","inputs":[],"outputs":[{"name":"","type":"address","internalType":"contract IGroth16Verifier"}],"stateMutability":"view"},{"type":"event","name":"ProofValidated","inputs":[{"name":"caller","type":"address","indexed":true,"internalType":"address"},{"name":"policyId","type":"bytes32","indexed":true,"internalType":"bytes32"},{"name":"identityCommitment","type":"bytes32","indexed":true,"internalType":"bytes32"}],"anonymous":false}],"bytecode":{"object":"0x60a060405234801561000f575f5ffd5b506040516108bc3803806108bc83398181016040528101906100319190610137565b5f73ffffffffffffffffffffffffffffffffffffffff168173ffffffffffffffffffffffffffffffffffffffff160361009f576040517f08c379a0000000000000000000000000000000000000000000000000000000008152600401610096906101bc565b60405180910390fd5b8073ffffffffffffffffffffffffffffffffffffffff1660808173ffffffffffffffffffffffffffffffffffffffff1681525050506101da565b5f5ffd5b5f73ffffffffffffffffffffffffffffffffffffffff82169050919050565b5f610106826100dd565b9050919050565b610116816100fc565b8114610120575f5ffd5b50565b5f815190506101318161010d565b92915050565b5f6020828403121561014c5761014b6100d9565b5b5f61015984828501610123565b91505092915050565b5f82825260208201905092915050565b7f696e76616c6964207665726966696572000000000000000000000000000000005f82015250565b5f6101a6601083610162565b91506101b182610172565b602082019050919050565b5f6020820190508181035f8301526101d38161019a565b9050919050565b6080516106c56101f75f395f81816088015260ae01526106c55ff3fe608060405234801561000f575f5ffd5b5060043610610034575f3560e01c80632b7ac3f314610038578063ba62a59314610056575b5f5ffd5b610040610086565b60405161004d919061025d565b60405180910390f35b610070600480360381019061006b9190610354565b6100aa565b60405161007d919061041b565b60405180910390f35b7f000000000000000000000000000000000000000000000000000000000000000081565b5f5f7f000000000000000000000000000000000000000000000000000000000000000073ffffffffffffffffffffffffffffffffffffffff1663c32e370e88888888886040518663ffffffff1660e01b815260040161010d959493929190610574565b602060405180830381865afa158015610128573d5f5f3e3d5ffd5b505050506040513d601f19601f8201168201806040525081019061014c91906105ec565b90508061018e576040517f08c379a000000000000000000000000000000000000000000000000000000000815260040161018590610671565b60405180910390fd5b87893373ffffffffffffffffffffffffffffffffffffffff167f74e2bc941f649bba3baf2edb7ef214299647acaf70868f676e4839651db6e69160405160405180910390a46001915050979650505050505050565b5f73ffffffffffffffffffffffffffffffffffffffff82169050919050565b5f819050919050565b5f61022561022061021b846101e3565b610202565b6101e3565b9050919050565b5f6102368261020b565b9050919050565b5f6102478261022c565b9050919050565b6102578161023d565b82525050565b5f6020820190506102705f83018461024e565b92915050565b5f5ffd5b5f5ffd5b5f819050919050565b6102908161027e565b811461029a575f5ffd5b50565b5f813590506102ab81610287565b92915050565b5f5ffd5b5f819050826020600202820111156102d0576102cf6102b1565b5b92915050565b5f819050826040600202820111156102f1576102f06102b1565b5b92915050565b5f5ffd5b5f5ffd5b5f5f83601f840112610314576103136102f7565b5b8235905067ffffffffffffffff811115610331576103306102fb565b5b60208301915083602082028301111561034d5761034c6102b1565b5b9250929050565b5f5f5f5f5f5f5f610160888a0312156103705761036f610276565b5b5f61037d8a828b0161029d565b975050602061038e8a828b0161029d565b965050604061039f8a828b016102b5565b95505060806103b08a828b016102d6565b9450506101006103c28a828b016102b5565b93505061014088013567ffffffffffffffff8111156103e4576103e361027a565b5b6103f08a828b016102ff565b925092505092959891949750929550565b5f8115159050919050565b61041581610401565b82525050565b5f60208201905061042e5f83018461040c565b92915050565b82818337505050565b61044960408383610434565b5050565b5f60029050919050565b5f81905092915050565b5f819050919050565b61047660408383610434565b5050565b5f610485838361046a565b60408301905092915050565b5f82905092915050565b5f604082019050919050565b6104b08161044d565b6104ba8184610457565b92506104c582610461565b805f5b838110156104fd576104da8284610491565b6104e4878261047a565b96506104ef8361049b565b9250506001810190506104c8565b505050505050565b5f82825260208201905092915050565b5f5ffd5b5f6105248385610505565b93507f07ffffffffffffffffffffffffffffffffffffffffffffffffffffffffffffff83111561055757610556610515565b5b602083029250610568838584610434565b82840190509392505050565b5f610120820190506105885f83018861043d565b61059560408301876104a7565b6105a260c083018661043d565b8181036101008301526105b6818486610519565b90509695505050505050565b6105cb81610401565b81146105d5575f5ffd5b50565b5f815190506105e6816105c2565b92915050565b5f6020828403121561060157610600610276565b5b5f61060e848285016105d8565b91505092915050565b5f82825260208201905092915050565b7f696e76616c69642070726f6f66000000000000000000000000000000000000005f82015250565b5f61065b600d83610617565b915061066682610627565b602082019050919050565b5f6020820190508181035f8301526106888161064f565b905091905056fea26469706673582212204bce602f4a6a9a4a5999090e337015eb955067474848329230c1112eb17219d664736f6c634300081e0033","linkReferences":{}},"methodIdentifiers":{"validateProof(bytes32,bytes32,uint256[2],uint256[2][2],uint256[2],uint256[])":"ba62a593","verifier()":"2b7ac3f3"},"id":5}