{"abi":[{"type":"function","name":"requestSettlement","inputs":[{"name":"settlementId","type":"bytes32","internalType":"bytes32"},{"name":"recipient","type":"address","internalType":"address"},{"name":"amount","type":"uint256","internalType":"uint256"}],"outputs":[],"stateMutability":"nonpayable"},{"type":"event","name":"SettlementRequested","inputs":[{"name":"settlementId","type":"bytes32","indexed":true,"internalType":"bytes32"},{"name":"payer","type":"address","indexed":true,"internalType":"address"},{"name":"recipient","type":"address","indexed":true,"internalType":"address"},{"name":"amount","type":"uint256","indexed":false,"internalType":"uint256"}],"anonymous":false}],"bytecode":{"object":"0x6080604052348015600e575f5ffd5b506104628061001c5f395ff3fe608060405234801561000f575f5ffd5b5060043610610029575f3560e01c80638e545e1e1461002d575b5f5ffd5b6100476004803603810190610042919061026c565b610049565b005b5f5f1b830361008d576040517f08c379a000000000000000000000000000000000000000000000000000000000815260040161008490610316565b60405180910390fd5b5f73ffffffffffffffffffffffffffffffffffffffff168273ffffffffffffffffffffffffffffffffffffffff16036100fb576040517f08c379a00000000000000000000000000000000000000000000000000000000081526004016100f29061037e565b60405180910390fd5b5f811161013d576040517f08c379a0000000000000000000000000000000000000000000000000000000008152600401610134906103e6565b60405180910390fd5b8173ffffffffffffffffffffffffffffffffffffffff163373ffffffffffffffffffffffffffffffffffffffff16847f3fc56b74d7e0fdb92b0a414ff1ed71442c26ff7664c8642363e50d5d2ad2cfce8460405161019b9190610413565b60405180910390a4505050565b5f5ffd5b5f819050919050565b6101be816101ac565b81146101c8575f5ffd5b50565b5f813590506101d9816101b5565b92915050565b5f73ffffffffffffffffffffffffffffffffffffffff82169050919050565b5f610208826101df565b9050919050565b610218816101fe565b8114610222575f5ffd5b50565b5f813590506102338161020f565b92915050565b5f819050919050565b61024b81610239565b8114610255575f5ffd5b50565b5f8135905061026681610242565b92915050565b5f5f5f60608486031215610283576102826101a8565b5b5f610290868287016101cb565b93505060206102a186828701610225565b92505060406102b286828701610258565b9150509250925092565b5f82825260208201905092915050565b7f696e76616c696420736574746c656d656e7420696400000000000000000000005f82015250565b5f6103006015836102bc565b915061030b826102cc565b602082019050919050565b5f6020820190508181035f83015261032d816102f4565b9050919050565b7f696e76616c696420726563697069656e740000000000000000000000000000005f82015250565b5f6103686011836102bc565b915061037382610334565b602082019050919050565b5f6020820190508181035f8301526103958161035c565b9050919050565b7f696e76616c696420616d6f756e740000000000000000000000000000000000005f82015250565b5f6103d0600e836102bc565b91506103db8261039c565b602082019050919050565b5f6020820190508181035f8301526103fd816103c4565b9050919050565b61040d81610239565b82525050565b5f6020820190506104265f830184610404565b9291505056fea2646970667358221220fbfa296e7c3435a788b2ef66afe249be1a9ca9e53046a19853518480d5068a2c64736f6c634300081e0033","linkReferences":{}},"methodIdentifiers":{"requestSettlement(bytes32,address,uint256)":"8e545e1e"},"id":1}